S00C00004C6162342E73726563D5
S113000045C0000061C000005FC000005DC000008A
S11300105BC0000059C0000057C0000055C000007C
S113002053C0000051C000004FC000004DC000008C
S11300304BC00000B0C5000047C0000045C0000030
S113004043C0000041C000003FC000003DC00000AC
S11300503BC0000039C0000037C0000035C00000BC
S113006033C0000031C000002FC000002DC00000CC
S11300702BC0000029C0000027C0000025C00000DC
S113008023C0000021C000001FC0000011241FBEB7
S1130090CFEFD0E4DEBFCDBF11E0A0E0B1E0E8E4F3
S11300A0F4E100E00BBF02C007900D92A231B1074A
S11300B0D9F728E0A2E1B1E001C01D92A130B20756
S11300C0E1F722D30C94220A9BCFCF93DF93EC0168
S11300D0B5D62091120130911301C9018C0F9D1FD7
S11300E08C3D45E0940758F42817390758F4E90182
S11300F0CC5EDE4F909313018093120105C0C0E0E3
S1130100D0E002C0C0E0D0E060D7CE01DF91CF9153
S113011008950895FC010396928381832FEF3FEFA6
S113012034832383968385839087878310820895FD
S1130130FC01118610860895CF93DF93FC01DB0147
S113014021813281E9018A819B8113969C938E934C
S113015012978181928115969C938E9314978A812C
S11301609B81EC017D836C83E9017B836A837283C9
S113017061831996FC93EE93189780818F5F808337
S1130180DF91CF910895CF93DF93EB01488159819B
S11301904F3F2FEF520731F4DC011796ED91FC919C
S11301A0189717C0FC013396DC0115962D913C91EC
S11301B01697D9012D913C914217530750F00280B4
S11301C0F381E02DA281B3812D913C914217530715
S11301D0B0F7A281B381BB83AA831596DC93CE9337
S11301E01497FD83EC83D383C28399878887FC01AA
S11301F020812F5F2083DF91CF910895FC01A2819C
S1130200B3818481958115969C938E931497A481D0
S1130210B5818281938113969C938E931297A085C6
S1130220B18511968D919C911297E817F90731F4D5
S11302308481958112969C938E93119711861086D2
S11302408C9181508C930895181619065CF00895CA
S1130250000021503109E1F74F5F5F4F8417950784
S113026019F4089540E050E027E033E0F1CF2898F6
S113027088B9299A0000299882E090E0E5CF089592
S113028081E0F5CF089588EE93E0DEDF88E3EFDFC9
S11302908AE090E0D9DF86E0EADF8AE090E0D4DF0C
S11302A08FE0E5DF8AE090E0CFDF81E0E0DF84E605
S11302B090E0CACF0895289A88B9299A000029980D
S11302C081E090E0C1CF0895813118F48158CFCFF7
S11302D008958155CCCF08950F931F93CF93DF9347
S11302E0182FEB01CDDF8881882351F001E0010F45
S11302F0812FEADF8991DFDF102F88818111F6CF0A
S1130300DF91CF911F910F910895813081F0E1EC3D
S1130310F0E0808188618083E2ECF0E08081866097
S1130320808383E38093C4001092C5000895E9ECB0
S1130330F0E0808188618083EAECF0E0808186606F
S1130340808383E38093CC001092CD0008958130A4
S113035029F48091C800882374F008958091C00026
S113036088238CF4A6ECB0E0E0ECF0E08C91808182
S11303708823E4F30895AEECB0E0E8ECF0E08C916F
S113038080818823E4F30895613041F0E0ECF0E0EB
S1130390908195FFFDCF8093C6000895E8ECF0E0CE
S11303A0908195FFFDCF8093CE000895813041F078
S11303B0E0ECF0E080818823ECF78091C60008959A
S11303C0E8ECF0E080818823ECF78091CE0008957A
S11303D0AF92BF92CF92DF92EF92FF920F931F934F
S11303E0CF93DF936C01A62EEC017C0184E1E80E2F
S11303F0F11CB12C00EC10E0F801808188234CF44E
S113040080E0D4DF88838A1103C080E0A0DF05C0C8
S1130410B3942196CE15DF0579F7F601EB0DF11DA6
S11304201082DF91CF911F910F91FF90EF90DF9099
S1130430CF90BF90AF9008952DEA37E040E850E0A8
S113044060E071E080E095E077C1089599233CF085
S113045010926B0710926A0780E090E00AC09195B1
S11304608195910990936B0780936A078F3F91055B
S11304701CF48093FB0608958FEF8093FB06089588
S1130480EAE7F0E08081806E80830895883060F030
S1130490ECE7F0E0808180838FE000008150E9F791
S11304A08FE08093F206089580937C00F5CF24EFCB
S11304B031E0AC01429FC001439F900D529F900DCB
S11304C01124892F99278695869506979C01220FDA
S11304D0331F220F331F220F331F280F391FADEC98
S11304E0BCECE2D696958795969587958096089567
S11304F0EF92FF920F931F93CF93DF93CDB7DEB7A5
S113050060970FB6F894DEBF0FBECDBF809167072A
S1130510882319F0813051F004C081E0809367078B
S113052005C0109267071092FA06BBC080E0AEDFE8
S11305301092FA068091780090917900B8DF909338
S1130540F9068093F80661E685E997E041DF85E9DD
S113055097E0FFD69093F5068093F4069C01295208
S113056031092B33310520F49093F7068093F60676
S11305708091C80085FF04C061E08091FB0604DF20
S11305808091F0069091F1068A30910530F401963D
S11305909093F1068093F00609C08091F306816080
S11305A08093F3061092F1061092F0068091F30600
S11305B080FF1DC08091F6069091F7069093AA07DC
S11305C08093A9076091F8067091F9067093AC07BF
S11305D06093AB074DEA57E0DAD0909369078093B4
S11305E0680734DF8091F3068E7F8093F3064AE038
S11305F06CE677E08091A9079091AA07E8D64AE0D3
S11306006FEB77E08091AB079091AC07E0D68091D7
S1130610FB064AE066E577E090E0D9D683E59AE305
S11306209A8389831C821B82FE0135968CE0DF014C
S11306301D928A95E9F76CE677E08E010F5F1F4FF4
S1130640C801ABD6F80101900020E9F7319780E2A8
S113065090E5918380830F2EFAE3EF2EF12CF02D99
S1130660F382E2826FEB77E0C80197D6F80101903C
S11306700020E9F7319780E29FE491838083F3823D
S1130680E28266E577E0C80188D6F801019000208F
S1130690E9F7319780E290E091838083B80181E0AB
S11306A01BDE60960FB6F894DEBF0FBECDBFDF91A0
S11306B0CF911F910F91FF90EF90089510926707CB
S11306C017DF84E690E002D5FBCFAF92BF92CF92C2
S11306D0DF92EF92FF920F93A12CB12CC12CD12C5D
S11306E0E12CF12C082F20E030E045E550E062E0F9
S11306F071E08EE593E086D20F91FF90EF90DF904A
S1130700CF90BF90AF90089511B88FEF82B987B999
S113071018B884B915B890DEB3DE80E0F6DD81E068
S1130720F4DDB1DD8BE490E09093F7068093F60658
S113073081E0CBDF5AD3FFCFCF93DF93FB01E901F5
S11307401A821B821C821D82198218829F838E83C7
S1130750798768875B874A87BC016F5F7F4F8FEF1C
S11307609FE773D57D876C879F012F5F3F4F032ED3
S1130770000C440B550B6FEF7FEF8FEF9FE378D5A1
S11307802E873F87488B598BDF91CF910895EF9245
S1130790FF920F931F93CF93DF938B01FA01861B74
S11307A0970B248535852817390784F031952195D1
S11307B03109821793076CF026813781829FE0010B
S11307C0839FD00D929FD00D112405C0CFEFDFE79A
S11307D002C0C1E0D0E8092E000CAA0BBB0B428179
S11307E05381648175819A01AB01280F391F4A1F17
S11307F05B1F86859785A089B18982179307A40713
S1130800B5074CF482839383A483B5836FEF7FEFA2
S11308108FEF9FE31CC0B095A095909581959F4F55
S1130820AF4FBF4F281739074A075B074CF4828341
S11308309383A483B58361E070E080E090EC07C00B
S11308402283338344835583A085B1853CD520819D
S11308503181201B310BA285B3852A9F70012B9F08
S1130860F00C3A9FF00C1124118300838E01DD0FEC
S1130870220B330BAB01BC01400F511F621F731FCE
S1130880C701FF0CAA0BBB0B480F591F6A1F7B1F24
S1130890DB01CA01772324F481589F4FAF4FBF4F28
S11308A0689416F8B595A795979587951694D1F7FA
S11308B0813020E892072FEFA207B20724F481E0E9
S11308C090E8AFEFBFEF811520E89207A105B105CD
S11308D024F08FEF9FE7A0E0B0E0DF91CF911F916C
S11308E00F91FF90EF90089531E1FC01308331972F
S11308F022E220833197A3E3A08331976083319769
S1130900708331971082319760E860833197108249
S1130910319762E06083319763E06083319764E0EC
S11309206083319765E06083319766E06083319737
S113093067E06083319768E06083319769E06083A2
S1130940319760E1608331973083319732E13083AE
S1130950319733E13083319734E13083319735E196
S11309603083319736E13083319737E130833197E3
S113097038E13083319739E13083319730E2308385
S1130980319731E2308331972083319723E22083FA
S11309903197408331975083319726E220833197F2
S11309A027E22083319728E22083319729E22083AC
S11309B0319720E32083319721E32083869708959C
S11309C0109289008CE7809388008BE080938100EB
S11309D0EFE6F0E0808182608083A0915407B091BB
S11309E05507CD91CDBFDD91DEBFFF91EF91DF9132
S11309F0CF91BF91AF919F918F917F916F915F91B3
S1130A004F913F912F911F910F91FF90EF90DF90A5
S1130A10CF90BF90AF909F908F907F906F905F909A
S1130A204F903F902F901F900F900FBE0F900895FE
S1130A3081E008950F920FB6F8940F921F9211243B
S1130A402F923F924F925F926F927F928F929F92DA
S1130A50AF92BF92CF92DF92EF92FF920F931F93C8
S1130A602F933F934F935F936F937F938F939F93B2
S1130A70AF93BF93CF93DF93EF93FF93A09154076A
S1130A80B09155070DB60D920EB60D9272D3A0918A
S1130A905407B0915507CD91CDBFDD91DEBFFF91D5
S1130AA0EF91DF91CF91BF91AF919F918F917F9102
S1130AB06F915F914F913F912F911F910F91FF90F3
S1130AC0EF90DF90CF90BF90AF909F908F907F90EA
S1130AD06F905F904F903F902F901F900F900FBE9C
S1130AE00F9008950F920FB6F8940F921F9211244D
S1130AF02F923F924F925F926F927F928F929F922A
S1130B00AF92BF92CF92DF92EF92FF920F931F9317
S1130B102F933F934F935F936F937F938F939F9301
S1130B20AF93BF93CF93DF93EF93FF93A0915407B9
S1130B30B09155070DB60D920EB60D9285D119D30D
S1130B40A0915407B0915507CD91CDBFDD91DEBF83
S1130B50FF91EF91DF91CF91BF91AF919F918F91D1
S1130B607F916F915F914F913F912F911F910F91C1
S1130B70FF90EF90DF90CF90BF90AF909F908F90B9
S1130B807F906F905F904F903F902F901F900F90A9
S1130B900FBE0F900895A6DF1895CF93DF93EC0155
S1130BA0E0915407F0915507938382838091040761
S1130BB090910507C817D90760F4609154077091A4
S1130BC0550780911A0790911B076E5F7F4FDBDA00
S1130BD016C0609154077091550780911C0790913D
S1130BE01D076E5F7F4FCFDA809100019091010164
S1130BF0C817D90720F4D0930101C0930001DF91F5
S1130C00CF9108954F925F926F927F928F929F92AD
S1130C10AF92BF92CF92DF92EF92FF920F931F9306
S1130C20CF93DF935C014B013A01290181E290E00B
S1130C304CDAEC01892B09F4C6C0C114D10409F0C3
S1130C40BEC0C30142DA988F8F8B009719F4CE018E
S1130C5060DAB9C0A30165EA70E098D3930121502A
S1130C6031098F89988D3C01620E731E48E050E073
S1130C70B401CE0149969CD318A2102F043008F079
S1130C8013E01E8B6E0182E0C80ED11CC60150DA3F
S1130C90CE010C964DDAD987C88784E090E0811B99
S1130CA091099D878C87DB8BCA8BA201B501C30197
S1130CB01BDE99838883E114F10419F0F701D183D1
S1130CC0C0830FB6F8940F92809106078F5F8093CC
S1130CD006078091540790915507892B69F5D093A5
S1130CE05507C0935407809106078130A1F580E32E
S1130CF097E010DA89E397E00DDA82E497E00ADA04
S1130D008BE497E007DA87E297E004DA8EE197E074
S1130D1001DA81E197E0FED988E097E0FBD987E228
S1130D2097E090931D0780931C078EE197E09093C2
S1130D301B0780931A070FC08091010781110BC014
S1130D40E0915407F09155078689081720F0D09355
S1130D505507C09354078E8990910307981710F490
S1130D60809303079091FC069F5F9093FC069091FB
S1130D700207981710F48093020790E09C01220F59
S1130D80331F220F331F220F331F820F931FB6010D
S1130D90805D984FD1D90F900FBE809101078823B1
S1130DA051F0E0915407F09155078689801728F493
S1130DB041DE81E009C081E007C081E005C0D88E32
S1130DC0CF8AC60147CF8FEFDF91CF911F910F914B
S1130DD0FF90EF90DF90CF90BF90AF909F908F9057
S1130DE07F906F905F904F900895AF92BF92CF9293
S1130DF0DF92EF92FF920F93A12CB12CC12CD12C36
S1130E00E12CF12C00E020E030E045E550E06DE01D
S1130E1071E081E898E0F6DE813041F4F894809343
S1130E2001071092050710920407CADD0F91FF9085
S1130E30EF90DF90CF90BF90AF900895809100071E
S1130E408F5F8093000708950F931F93CF93DF93D1
S1130E50809100078111AFC080910407909105072C
S1130E60019690930507809304078091040790915D
S1130E700507892B99F580911C0790911D072091F6
S1130E801A0730911B0730931D0720931C0790937A
S1130E901B0780931A078091FD068F5F8093FD06E0
S1130EA0E0911C07F0911D078081811107C08FEF2D
S1130EB09FEF909301018093000110C0E0911C0703
S1130EC0F0911D070580F681E02D0680F781E02D65
S1130ED08281938190930101809300012091040702
S1130EE0309105078091000190910101281739077D
S1130EF008F466C0E0911C07F0911D0780818823E7
S1130F0099F0E0911C07F0911D070580F681E02D12
S1130F10C681D7818A819B8120910407309105077E
S1130F2028173907F8F419C08FEF9FEF9093010148
S1130F308093000145C0E0911C07F0911D070580D6
S1130F40F681E02DC681D7818A819B812091040797
S1130F50309105072817390728F4909301018093ED
S1130F6000012EC08E010E5F1F4FC80147D98C8926
S1130F709D89892B19F0CE010C9640D98E899091C8
S1130F800207981710F48093020790E09C01220F47
S1130F90331F220F331F220F331F820F931FB801F9
S1130FA0805D984FC9D8E0911C07F0911D0780819E
S1130FB08111C1CFB9CF8091FF068F5F8093FF0667
S1130FC0DF91CF911F910F910895CF92DF92EF920D
S1130FD0FF920F931F93CF93DF930FB6F8940F9262
S1130FE08091000781508093000780910007811150
S1130FF05FC08091060781112FC05DC0D70115968F
S1131000ED91FC911697C681D781CE010C96F6D846
S11310108E010E5F1F4FC801F1D88E89909102078F
S1131020981710F48093020790E09C01220F331F5D
S1131030220F331F220F331F820F931FB801805DCD
S1131040984F7AD8E0915407F09155079E89868984
S1131050981758F0DC2C09C0D12C0F2EF1E1EF2E9B
S1131060F7E0FF2EF02DCC24C394F7018081811189
S1131070C5CF8091FF06882379F08091FF068823ED
S113108091F0E2DE8091FF0681508093FF0680910B
S1131090FF068111F6CF07C0F1E0DF1621F0809141
S11310A0FE06813039F41092FE06C4DC81E003C0F0
S11310B080E001C080E00F900FBEDF91CF911F91BF
S11310C00F91FF90EF90DF90CF900895CF93DF932F
S11310D0EC01892B91F0B2DE809104079091050711
S11310E0C80FD91F8091540790915507029686D84E
S11310F0CE0153DD6ADF811101C09CDCDF91CF9109
S113110008950F2EF8E0EF2EF7E0FF2EF02DC0E348
S1131110D7E080910707882339F190DED7011C912D
S113112054DF112309F10FB6F8940F92D7011596E5
S1131130ED91FC91169706811781C80102965ED83D
S1131140809106078150809306078091070781509C
S1131150809307070F900FBEF8018789908D0E9436
S11311608900C8010E9489008881823090F262DC83
S1131170D0CF80910007811113C08091020790E0C5
S1131180FC01EE0FFF1FEE0FFF1FEE0FFF1F8E0F70
S11311909F1FFC01E05DF84F8081882329F01BC06C
S11311A081E08093FE060895809102078150809328
S11311B002078091020790E0FC01EE0FFF1FEE0F83
S11311C0FF1FEE0FFF1F8E0F9F1FFC01E05DF84F06
S11311D08081882349F38091020790E09C01220FCB
S11311E0331F220F331F220F331F280F391FD9013A
S11311F0A05DB84F1196ED91FC9112970280F38196
S1131200E02D1296FC93EE9311972D5C384FE21764
S1131210F30729F422813381FD0132832183FC0108
S1131220EE0FFF1FEE0FFF1FEE0FFF1F8E0F9F1F0E
S1131230FC01E05DF84F0180F281E02D8681978109
S11312409093550780935407089597FB072E16F43F
S1131250009406D077FD08D03CD007FC05D03EF4BE
S1131260909581959F4F0895709561957F4F08954E
S1131270052E97FB16F400940FD057FD05D03DD0F2
S113128007FC02D046F408C050954095309521954E
S11312903F4F4F4F5F4F089590958095709561959E
S11312A07F4F8F4F9F4F0895A29FB001B39FC001FE
S11312B0A39F700D811D1124911DB29F700D811D7E
S11312C01124911D0895B7FF3AC039D0821B930BA6
S11312D00895AA1BBB1B51E107C0AA1FBB1FA61779
S11312E0B70710F0A61BB70B881F991F5A95A9F7CB
S11312F080959095BC01CD010895A1E21A2EAA1BF8
S1131300BB1BFD010DC0AA1FBB1FEE1FFF1FA217B1
S1131310B307E407F50720F0A21BB30BE40BF50BAE
S1131320661F771F881F991F1A9469F76095709537
S1131330809590959B01AC01BD01CF010895B4DF68
S1131340A59F900DB49F900DA49F800D911D112415
S11313500895FC0188279927E89421912032E9F324
S1131360293010F02E30C8F32B3239F02D3231F4FD
S1131370689403C036D0820F911D219120532A30E6
S1131380C8F31EF4909581959F4F0895DC0101C028
S11313906D9341505040E0F70895FB01DC010D903E
S11313A00020E9F7119701900D920020E1F70895CC
S11313B0FB01DC014150504048F001900D920020A7
S11313C0C9F701C01D9241505040E0F70895BB2772
S11313D04A3031F4992322F4BDE2909581959F4FD0
S11313E009C07AE0979F902D879F802D910D11243D
S11313F00895BB27FB015527AA27880F991FAA1F09
S1131400A41710F0A41B83955051B9F7A05DAA331B
S113141008F0A95DA193009779F7B111B1931192E6
S1131420CB0100C0DC01FC01672F71917723E1F748
S1131430329704C07C916D9370836291AE17BF079D
S10B1440C8F30895F894FFCFEE
S1131448FFFF4C65645365635461736B0049444CF6
S1051458450049
S9030000FC
